{
  "contractName": "Voting",
  "abi": [
    {
      "constant": true,
      "inputs": [
        {
          "name": "",
          "type": "uint256"
        }
      ],
      "name": "candidates",
      "outputs": [
        {
          "name": "",
          "type": "bytes32"
        }
      ],
      "payable": false,
      "stateMutability": "view",
      "type": "function"
    },
    {
      "constant": true,
      "inputs": [
        {
          "name": "",
          "type": "bytes32"
        }
      ],
      "name": "votesFor",
      "outputs": [
        {
          "name": "",
          "type": "uint8"
        }
      ],
      "payable": false,
      "stateMutability": "view",
      "type": "function"
    },
    {
      "inputs": [
        {
          "name": "candidateNames",
          "type": "bytes32[]"
        }
      ],
      "payable": false,
      "stateMutability": "nonpayable",
      "type": "constructor"
    },
    {
      "constant": false,
      "inputs": [
        {
          "name": "candidate",
          "type": "bytes32"
        }
      ],
      "name": "voteForCandidate",
      "outputs": [],
      "payable": false,
      "stateMutability": "nonpayable",
      "type": "function"
    },
    {
      "constant": true,
      "inputs": [
        {
          "name": "candidate",
          "type": "bytes32"
        }
      ],
      "name": "totalVotesFor",
      "outputs": [
        {
          "name": "",
          "type": "uint256"
        }
      ],
      "payable": false,
      "stateMutability": "view",
      "type": "function"
    },
    {
      "constant": true,
      "inputs": [
        {
          "name": "candidate",
          "type": "bytes32"
        }
      ],
      "name": "validCandidate",
      "outputs": [
        {
          "name": "",
          "type": "bool"
        }
      ],
      "payable": false,
      "stateMutability": "view",
      "type": "function"
    },
    {
      "constant": true,
      "inputs": [],
      "name": "totalCandidate",
      "outputs": [
        {
          "name": "",
          "type": "uint256"
        }
      ],
      "payable": false,
      "stateMutability": "view",
      "type": "function"
    }
  ],
  "bytecode": "0x608060405234801561001057600080fd5b50604051610452380380610452833981018060405281019080805182019291905050508060009080519060200190610049929190610050565b50506100c8565b828054828255906000526020600020908101928215610092579160200282015b82811115610091578251829060001916905591602001919060010190610070565b5b50905061009f91906100a3565b5090565b6100c591905b808211156100c15760008160009055506001016100a9565b5090565b90565b61037b806100d76000396000f300608060405260043610610078576000357c0100000000000000000000000000000000000000000000000000000000900463ffffffff1680631812dab41461007d5780632f265cf7146100a85780633477ee2e146100ed578063392e667814610136578063922133e31461017f578063cc9ab267146101ca575b600080fd5b34801561008957600080fd5b506100926101fb565b6040518082815260200191505060405180910390f35b3480156100b457600080fd5b506100d76004803603810190808035600019169060200190929190505050610207565b6040518082815260200191505060405180910390f35b3480156100f957600080fd5b5061011860048036038101908080359060200190929190505050610250565b60405180826000191660001916815260200191505060405180910390f35b34801561014257600080fd5b506101656004803603810190808035600019169060200190929190505050610273565b604051808215151515815260200191505060405180910390f35b34801561018b57600080fd5b506101ae60048036038101908080356000191690602001909291905050506102d2565b604051808260ff1660ff16815260200191505060405180910390f35b3480156101d657600080fd5b506101f960048036038101908080356000191690602001909291905050506102f2565b005b60008080549050905090565b600061021282610273565b151561021d57600080fd5b60016000836000191660001916815260200190815260200160002060009054906101000a900460ff1660ff169050919050565b60008181548110151561025f57fe5b906000526020600020016000915090505481565b600080600090505b6000805490508110156102c757826000191660008281548110151561029c57fe5b90600052602060002001546000191614156102ba57600191506102cc565b808060010191505061027b565b600091505b50919050565b60016020528060005260406000206000915054906101000a900460ff1681565b6102fb81610273565b151561030657600080fd5b6001806000836000191660001916815260200190815260200160002060008282829054906101000a900460ff160192506101000a81548160ff021916908360ff160217905550505600a165627a7a72305820533f61a11e9caf1ab6421fcb20361308213da1f4d785b8cf63b4a372c38f670a0029",
  "source": "pragma solidity ^0.4.17;\n\ncontract Voting {\n    bytes32[] public candidates;\n    mapping (bytes32 => uint8) public votesFor;\n\n    // constructor to initialize candidates\n    constructor(bytes32[] candidateNames) public {\n        candidates = candidateNames;\n    }\n\n    // Vote for a candidate\n    function voteForCandidate(bytes32 candidate) public {\n        require(validCandidate(candidate));\n        votesFor[candidate] += 1;\n    }\n\n    // get the total count of votes for a candidate\n    function totalVotesFor(bytes32 candidate) view public returns (uint) {\n        require(validCandidate(candidate));\n        return votesFor[candidate];\n    }\n\n    // Check whether a candidate is valid or not\n    function validCandidate(bytes32 candidate) view public returns (bool) {\n        for (uint i = 0; i < candidates.length; i++) {\n            if (candidates[i] == candidate) {\n                return true;\n            }\n        }\n        return false;\n    }\n\n    // Get the total number of the candidates\n    function totalCandidate() view public returns (uint){\n        return candidates.length;\n    }\n}\n",
  "sourcePath": "/home/xi/IdeaProjects/voting/contracts/Voting.sol",
  "compiler": {
    "name": "solc",
    "version": "0.4.24+commit.e67f0147.Emscripten.clang"
  },
  "schemaVersion": "2.0.1",
  "updatedAt": "2018-08-27T01:59:40.023Z"
}